:100000000C9434000C943E000C943E000C943E0082
:100010000C943E000C943E000C943E000C943E0068
:100020000C943E000C943E000C943E000C943E0058
:100030000C943E000C943E000C943E000C943E0048
:100040000C943E000C943E000C943E000C943E0038
:100050000C943E000C943E000C943E000C943E0028
:100060000C943E000C943E0011241FBECFEFD8E04C
:10007000DEBFCDBF0E9450000C9455000C940000D0
:10008000209A289A03D0289801D0FBCF38E22AEF93
:100090001AEF1A95F1F72A95D9F73A95C1F708950D
:0E00A0000E94400080E090E00895F894FFCFA9
:00000001FF
